:020000040000FA
:100000006DEF00F0FFFFFFFF5B82FACF01F0FBCF47
:1000100002F0D9CF03F0DACF04F0F2AC12EF00F027
:1000200014EF00F063EF00F00E01C5AB1AEF00F023
:100030001CEF00F033EF00F0CDAB21EF00F023EF29
:1000400000F033EF00F002D831EF00F00500FA6E57
:100050000101F651FD6EF751FE6EF851FF6EFA5038
:10006000120063EF00F0C5A938EF00F03AEF00F09E
:1000700051EF00F0CDA93FEF00F041EF00F051EF5C
:1000800000F002D84FEF00F00500FA6E0101F351C5
:10009000FD6EF451FE6EF551FF6EFA50120063EFE3
:1000A00000F0C6A356EF00F058EF00F063EF00F049
:1000B000CEA35DEF00F05FEF00F063EF00F04DECDA
:1000C0007FF063EF00F004C0DAFF03C0D9FF02C085
:1000D000FBFF01C0FAFF5B921100E5EF79F0FFFF33
:1000E000FFFFFFFFFFFFFFFFFFFFFFFFFFFFFFFF20
:1000F000FFFFFFFFFFFFFFFFFFFFFFFFFFFFFFFF10
:10010000FFFFFFFFFFFFFFFFFFFFFFFFFFFFFFFFFF
:10011000FFFFFFFFFFFFFFFFFFFFFFFFFFFFFFFFEF
:10202000424242424242424542424242424242428D
:102030004242424242424242424242424242424280
:10204000424242424242424242424242424242456D
:102050004242424242424242424242424242424260
:102060004242424242424242424242424242424250
:102070004242424242424245424242464646464629
:10208000464642424642424246424646424646460C
:1020900046424642424646464646464642424245F9
:1020A0004242424642424242424642424242464600
:1020B00046464646424642424246424242464242E4
:1020C00042424246424242454242424642464646D9
:1020D00042464246464646424642464642464646B4
:1020E00046424646424642464646424642424245AD
:1020F00042424246424646464246424646424242A4
:10210000424642464246464642464246424642468B
:102110004646424642424245424242464246464680
:10212000424642464646464246424642464242426F
:102130004242464642464246464642464242424560
:102140004242424642424242424642464646464257
:102150004246464642464246424642424246424243
:102160004242424642424245424242464646464634
:10217000464642464246424642464246424642461B
:102180004246424642464646464646464242424508
:10219000424242424242424242424246464642460F
:1021A00042464642424242464642424642424242FB
:1021B00042424242424242454242424642464646EC
:1021C00046464242424642464246464246424642CF
:1021D00042464242424646464646424242424245C4
:1021E00042424246464646464242464246424646AB
:1021F000424246464246464246424642424646429F
:102200004646464642424245424242424642464293
:102210004246424242464646424246464242424286
:102220004642424646464246424642424242424573
:102230004242424642464646464242464246424262
:10224000424642424246464646464642464242464A
:102250004646424642424245424242424246464643
:102260004246424646424242424246424642464632
:102270004246464246424246464246424242424523
:102280004242424642424646424242464246464216
:1022900046464646464646424642464642424642F2
:1022A00042464646424242454242424242464642F7
:1022B00046464242464246464642424246424242E2
:1022C00046424246464646424246464242424245CF
:1022D00042424242464646464642464646424242BE
:1022E00046424246424242464646464246464242AE
:1022F00046464242424242454242424246424242AF
:102300004646464642464646424642424646424285
:10231000424646464642464642424246424242457E
:102320004242424246464642424242424642424679
:10233000424246464646464642464646464646424D
:102340004646464642424245424242424246464252
:102350004646464246424642424246464646424635
:102360004646424242424646424646424242424532
:102370004242424646464246424246424242424625
:1023800046464246424642424646464646464646FD
:102390004646464242424245424242424646424602
:1023A00046464642464642424246424642464246E9
:1023B00042464246464246464642424642424245DE
:1023C00042424246424646424242464246424246D5
:1023D00042424642464646464642464242464242BD
:1023E00042424246424242454242424642464242BE
:1023F0004646464642464242464246464642424299
:102400004642424242424242464646424242424599
:102410004242424642424642424246464242424688
:102420004646464242424646464242464242464668
:102430004246424242424245424242464246464269
:102440004246424246464642464646424642464248
:102450004246424646464646464246424242424539
:102460004242424242424242424242464246464240
:102470004242424242424646424646464242424624
:102480004246464642424245424242464646464609
:1024900046464242424646464242464242464246FC
:1024A00042464646424642464246464242424245ED
:1024B00042424246424242424246424646464646E0
:1024C00042464242424646424646464642424246CC
:1024D00046464646424242454242424642464646B9
:1024E00042464246464642464646464242464242A8
:1024F000424642464646464646424242424242459D
:10250000424242464246464642464246424242468F
:10251000424646464246464646464642464242466F
:10252000464246464242424542424246424646466C
:102530004246424642424646424242424246424663
:102540004242464242464642464242424242424558
:10255000424242464242424242464242464642424B
:10256000464242464242424646464242424642462F
:10257000464642424242424542424246464646461C
:102580004646424642464242424242464642424213
:102590004246464642424642424246424242424504
:1025A000424242424242424242424242424242420B
:1025B00042424242424242424242424242424242FB
:1025C00042424242424242454242424242424242E8
:1025D00042424242424242424242424242424242DB
:1025E00042424242424242424242424242424245C8
:1025F00042424242424242424242424242424242BB
:1026000042424242424242424242424242424242AA
:1026100042424242424242451B000000000000008C
:1026200000000000000000000000000000000000AA
:10263000000000000000000000000000000000009A
:10264000000000000000000000000000000000008A
:10265000000000000000000000000000000000007A
:10266000000000000000000000000000000000006A
:10267000000000000000000000000000000000005A
:10268000FFFFFFFFFFFFFFFFFFFFFFFFFFFFFFFF5A
:10269000FFFFFFFFFFFFFFFFFFFFFFFFFFFFFFFF4A
:1026A000FFFFFFFFFFFFFFFFFFFFFFFFFFFFFFFF3A
:1026B000FFFFFFFFFFFFFFFFFFFFFFFFFFFFFFFF2A
:1026C000FFFFFFFFFFFFFFFFFFFFFFFFFFFFFFFF1A
:1026D000FFFFFFFFFFFFFFFFFFFFFFFFFFFFFFFF0A
:1026E000FFFFFFFFFFFFFFFFFFFFFFFFFFFFFFFFFA
:1026F000FFFFFFFFFFFFFFFFFFFFFFFFFFFFFFFFEA
:10270000FFFFFFFFFFFFFFFFFFFFFFFFFFFFFFFFD9
:10271000FFFFFFFFFFFFFFFFFFFFFFFFFFFFFFFFC9
:10272000FFFFFFFFFFFFFFFFFFFFFFFFFFFFFFFFB9
:10273000FFFFFFFFFFFFFFFFFFFFFFFFFFFFFFFFA9
:10274000FFFFFFFFFFFFFFFFFFFFFFFFFFFFFFFF99
:10275000FFFFFFFFFFFFFFFFFFFFFFFFFFFFFFFF89
:10276000FFFFFFFFFFFFFFFFFFFFFFFFFFFFFFFF79
:10277000FFFFFFFFFFFFFFFFFFFFFFFFFFFFFFFF69
:102780004368616E6E656C20310A50726963652022
:10279000523130362E30302E000000000000000094
:1027A0000000000000000000000000000000000029
:1027B0000000000000000000000000000000000019
:1027C0000000000000000000000000000000000009
:1027D00000000000000000000000000000000000F9
:1027E00000000000000000000000000000000000E9
:1027F00000000000000000000000000000000000D9
:1028000042424242424242424242424242424242A8
:102810004242424242424242424242424242424298
:102820004242424242424245424242424242424285
:102830004242424242424242424242424242424278
:102840004242424242424242424242424242424565
:102850004242424242424242424242424242424258
:102860004242424242424242424242424242424248
:102870004242424242424245424242464646464621
:102880004646424246464242464642424246464208
:1028900042464642424646464646464642424245F1
:1028A00042424246424242424246424242464242FC
:1028B00046464642464242424242464642464242DC
:1028C00042424246424242454242424642464646D1
:1028D00042464242424642424642424246464646BC
:1028E00042464246424642464646424642424245A9
:1028F0004242424642464646424642424642464698
:102900004646424646424246424646424246424683
:102910004646424642424245424242464246464678
:102920004246424242424242424642424642464673
:102930004642464642464246464642464242424554
:10294000424242464242424242464246464646424F
:10295000464246464242464242464242424642423F
:10296000424242464242424542424246464646462C
:102970004646424642464246424642464246424613
:102980004246424642464646464646464242424500
:10299000424242424242424242424242464246420F
:1029A00042464646464642464646424242424242E7
:1029B00042424242424242454242424642424642EC
:1029C00046464246464246464246424642424642C3
:1029D00046424642464246424242424242424245C4
:1029E00042424242424646464642424246424242B3
:1029F0004642464646424242464242464646464293
:102A00004242424642424245424242464646424293
:102A1000464646464646464646464246424646465E
:102A2000424242464242464642464646424242456B
:102A30004242424246424642424246424242424666
:102A40004642424242464242464646464246424646
:102A5000464246424242424542424242424242424B
:102A6000424642464642424242464246424246422E
:102A70004642464246464642464246464242424513
:102A80004242424246464242424242464246424216
:102A900046464642424246424646424242424646F6
:102AA00046424646424242454242424242464646EB
:102AB00042464646424646424642464642424242D6
:102AC00042464646464642464646464242424245BF
:102AD00042424246424646464242424246424246BE
:102AE00042424246464646464646424642464242A2
:102AF00042424642424242454242424242424642AB
:102B00004646424246464646464246424646464675
:102B10004646464642464246424246424242424576
:102B20004242424242424642424246464242424279
:102B3000424646464242424242464642424246425D
:102B40004642424242424245424242464642424256
:102B50004646464646424642424642424642424235
:102B60004242424242464242424646464242424532
:102B7000424242424646424642424642424646421D
:102B80004646424246424242464242424646464209
:102B90004242464242424245424242424246464602
:102BA00042464646424246424642464246464246E1
:102BB00046424646464242424242424642424245DE
:102BC00042424242424242424642424246464642D5
:102BD00046424642424242464642424646464242B9
:102BE00046464646424242454242424646424642A6
:102BF0004646464646464646424642464642464681
:102C00004242424246464642464642464242424589
:102C1000424242424646424242424242424242428C
:102C20004242464242464242464242424646464668
:102C30004242464642424245424242464242424661
:102C40004246464642424642464242464642464640
:102C5000464242464646464646424646424242452D
:102C60004242424242424242424242464642424638
:102C70004242424646464646424242464242424618
:102C80004642464642424245424242464646464601
:102C900046464242424642464242424646464246F4
:102CA00046424246424642464646464242424245E5
:102CB00042424246424242424246424646464242E0
:102CC00046464242464242424646424642424246C8
:102CD00042424246424242454242424642464646BD
:102CE00042464242464642424646424242464646A4
:102CF0004646424646464646464246464242424589
:102D00004242424642464646424642464242464683
:102D1000464646464242424246464646424642466B
:102D20004646424242424245424242464246464668
:102D3000424642424646464642464646424642424F
:102D40004646464242424246464242464242424548
:102D50004242424642424242424642424642424247
:102D60004642424246464246464246464246424223
:102D7000424242424242424542424246464646461C
:102D8000464642464642464242424642424242420B
:102D900046424246424242464642464242424245FC
:102DA0004242424242424242424242424242424203
:102DB00042424242424242424242424242424242F3
:102DC00042424242424242454242424242424242E0
:102DD00042424242424242424242424242424242D3
:102DE00042424242424242424242424242424245C0
:102DF00042424242424242424242424242424242B3
:102E000042424242424242424242424242424242A2
:102E100042424242424242451B0000000000000084
:102E200000000000000000000000000000000000A2
:102E30000000000000000000000000000000000092
:102E40000000000000000000000000000000000082
:102E50000000000000000000000000000000000072
:102E60000000000000000000000000000000000062
:102E70000000000000000000000000000000000052
:102E8000FFFFFFFFFFFFFFFFFFFFFFFFFFFFFFFF52
:102E9000FFFFFFFFFFFFFFFFFFFFFFFFFFFFFFFF42
:102EA000FFFFFFFFFFFFFFFFFFFFFFFFFFFFFFFF32
:102EB000FFFFFFFFFFFFFFFFFFFFFFFFFFFFFFFF22
:102EC000FFFFFFFFFFFFFFFFFFFFFFFFFFFFFFFF12
:102ED000FFFFFFFFFFFFFFFFFFFFFFFFFFFFFFFF02
:102EE000FFFFFFFFFFFFFFFFFFFFFFFFFFFFFFFFF2
:102EF000FFFFFFFFFFFFFFFFFFFFFFFFFFFFFFFFE2
:102F0000FFFFFFFFFFFFFFFFFFFFFFFFFFFFFFFFD1
:102F1000FFFFFFFFFFFFFFFFFFFFFFFFFFFFFFFFC1
:102F2000FFFFFFFFFFFFFFFFFFFFFFFFFFFFFFFFB1
:102F3000FFFFFFFFFFFFFFFFFFFFFFFFFFFFFFFFA1
:102F4000FFFFFFFFFFFFFFFFFFFFFFFFFFFFFFFF91
:102F5000FFFFFFFFFFFFFFFFFFFFFFFFFFFFFFFF81
:102F6000FFFFFFFFFFFFFFFFFFFFFFFFFFFFFFFF71
:102F7000FFFFFFFFFFFFFFFFFFFFFFFFFFFFFFFF61
:102F80004368616E6E656C20320A50726963652019
:102F90005233322E36302E000000000000000000B8
:102FA0000000000000000000000000000000000021
:102FB0000000000000000000000000000000000011
:102FC0000000000000000000000000000000000001
:102FD00000000000000000000000000000000000F1
:102FE00000000000000000000000000000000000E1
:102FF00000000000000000000000000000000000D1
:1030000042424242424242424242424242424242A0
:103010004242424242424242424242424242424290
:10302000424242424242424542424242424242427D
:103030004242424242424242424242424242424270
:10304000424242424242424242424242424242455D
:103050004242424242424242424242424242424250
:103060004242424242424242424242424242424240
:103070004242424242424245424242464646464619
:1030800046464242464646424246464246464242FC
:1030900046464242424646464646464642424245E9
:1030A00042424246424242424246424646464646E4
:1030B00046464246424642424646424242464242D4
:1030C00042424246424242454242424642464646C9
:1030D00042464246424246424642464642464646AC
:1030E000464246464246424646464246424242459D
:1030F0004242424642464646424642464246424294
:103100004242464242464642464242464246424683
:103110004646424642424245424242464246464670
:103120004246424246424642464246424642424267
:103130004242464642464246464642464242424550
:10314000424242464242424242464242424646424F
:103150004246424642464246464642424246424233
:103160004242424642424245424242464646464624
:10317000464642464246424642464246424642460B
:1031800042464246424646464646464642424245F8
:103190004242424242424242424242464246424603
:1031A00042464242424242464242464642424242EF
:1031B00042424242424242454242424642424242E8
:1031C00042464246424642464246464246424642BF
:1031D00042464242464642424646464242424245B4
:1031E000424242464642424242424646464646469F
:1031F0004246424242464646424646424242424693
:103200004646464242424245424242424642464287
:103210004646424242424646424246464242424276
:103220004642424646464246424642424242424563
:10323000424242424646424642424246424642425A
:103240004246464246424646424646424642464636
:10325000464642464242424542424242464242423B
:10326000424646424242464246464646464642421A
:103270004242424242464242424242464242424523
:103280004242424642424646464246424642424602
:1032900046464246464246424242464642424242F2
:1032A00042464646424242454242424242424642EB
:1032B00046464646464242424642424246424242D2
:1032C00046424246464646424246464242424245BF
:1032D00042424242464246424642464242464646B2
:1032E00046464642424242424242464246424646A2
:1032F000464642464242424542424242464242429B
:103300004646464642464246424642424646424279
:10331000424646464642464642424246424242456E
:103320004242424646464242424242424642424669
:103330004242424646464646464646464646424241
:103340004646464642424245424242424642464242
:103350004646424642424242464646424646464229
:10336000464246424646464246464246424242451A
:103370004242424642464646424246424246424611
:1033800042464646424642424246464646464246F5
:1033900046464642424242454242424642464246F2
:1033A00046464642464242464242424642464246DD
:1033B00042464246464246464642424642424245CE
:1033C00042424246464642464242424242464246C5
:1033D00042464246464646424246464242424646A9
:1033E00042424242424242454242424642424642B2
:1033F0004646464642464642464246464642424285
:103400004642424242424242464646424242424589
:10341000424242464242424242424642464242467C
:103420004646424242424646424242464242424664
:103430004246424242424245424242464646464651
:10344000464646464642424242424646424242463C
:10345000424246464646464642424246424242452D
:103460004242424242424242424242464246464230
:10347000424246424242464646464646424242460C
:1034800042464646424242454242424646464646F9
:1034900046464242424246464642464242424246F0
:1034A00042464646424642464246464242424245DD
:1034B00042424246424242424246424246464646D4
:1034C00046464646424646464242464642424246B4
:1034D00046464642424242454242424642464646AD
:1034E00042464242464642464246464242464242A0
:1034F000424642464646464646424242424242458D
:10350000424242464246464642464242464242467F
:103510004242424642464646424646424642464667
:10352000464246464242424542424246424646465C
:103530004246424242464642464642464646464247
:103540004246424246424646424246464242424540
:10355000424242464242424242464242424642423F
:10356000464246464242424642464242424646461B
:10357000464642424242424542424246464646460C
:103580004646424642464242424242464642424203
:1035900042464646424246424242464242424245F4
:1035A00042424242424242424242424242424242FB
:1035B00042424242424242424242424242424242EB
:1035C00042424242424242454242424242424242D8
:1035D00042424242424242424242424242424242CB
:1035E00042424242424242424242424242424245B8
:1035F00042424242424242424242424242424242AB
:10360000424242424242424242424242424242429A
:1036100042424242424242451B000000000000007C
:10362000000000000000000000000000000000009A
:10363000000000000000000000000000000000008A
:10364000000000000000000000000000000000007A
:10365000000000000000000000000000000000006A
:10366000000000000000000000000000000000005A
:10367000000000000000000000000000000000004A
:10368000FFFFFFFFFFFFFFFFFFFFFFFFFFFFFFFF4A
:10369000FFFFFFFFFFFFFFFFFFFFFFFFFFFFFFFF3A
:1036A000FFFFFFFFFFFFFFFFFFFFFFFFFFFFFFFF2A
:1036B000FFFFFFFFFFFFFFFFFFFFFFFFFFFFFFFF1A
:1036C000FFFFFFFFFFFFFFFFFFFFFFFFFFFFFFFF0A
:1036D000FFFFFFFFFFFFFFFFFFFFFFFFFFFFFFFFFA
:1036E000FFFFFFFFFFFFFFFFFFFFFFFFFFFFFFFFEA
:1036F000FFFFFFFFFFFFFFFFFFFFFFFFFFFFFFFFDA
:10370000FFFFFFFFFFFFFFFFFFFFFFFFFFFFFFFFC9
:10371000FFFFFFFFFFFFFFFFFFFFFFFFFFFFFFFFB9
:10372000FFFFFFFFFFFFFFFFFFFFFFFFFFFFFFFFA9
:10373000FFFFFFFFFFFFFFFFFFFFFFFFFFFFFFFF99
:10374000FFFFFFFFFFFFFFFFFFFFFFFFFFFFFFFF89
:10375000FFFFFFFFFFFFFFFFFFFFFFFFFFFFFFFF79
:10376000FFFFFFFFFFFFFFFFFFFFFFFFFFFFFFFF69
:10377000FFFFFFFFFFFFFFFFFFFFFFFFFFFFFFFF59
:103780004368616E6E656C20330A50726963652010
:10379000523430382E30322E00000000000000007D
:1037A0000000000000000000000000000000000019
:1037B0000000000000000000000000000000000009
:1037C00000000000000000000000000000000000F9
:1037D00000000000000000000000000000000000E9
:1037E00000000000000000000000000000000000D9
:1037F00000000000000000000000000000000000C9
:103800004242424242424242424242424242424298
:103810004242424242424242424242424242424288
:103820004242424242424245424242424242424275
:103830004242424242424242424242424242424268
:103840004242424242424242424242424242424555
:103850004242424242424242424242424242424248
:103860004242424242424242424242424242424238
:103870004242424242424245424242464646464611
:1038800046464242464646424246464246464242F4
:1038900046464242424646464646464642424245E1
:1038A00042424246424242424246424646424646E0
:1038B00046464246424642424646424242464242CC
:1038C00042424246424242454242424642464646C1
:1038D000424642464646464246424646424646469C
:1038E0004642464642464246464642464242424595
:1038F000424242464246464642464246464242428C
:10390000424246424246464246424246424642467B
:103910004646424642424245424242464246464668
:10392000424642424642464646424642464242425B
:103930004242464642464246464642464242424548
:103940004242424642424242424642424246424647
:103950004246424642464246464642464246424227
:10396000424242464242424542424246464646461C
:103970004646424642464246424642464246424603
:1039800042464246424646464646464642424245F0
:1039900042424242424242424242424642464246FB
:1039A00042464242424242464242424242424242EF
:1039B00042424242424242454242424642424242E0
:1039C00042464246424646464246464246424642B3
:1039D00042464242464642424646464242424245AC
:1039E000424242424642424242424646424646469F
:1039F000424642424246464642464642424242468B
:103A00004646464242424245424242424242464283
:103A1000464642424646464642424646464642425E
:103A2000464242464646424642464242424242455B
:103A30004242424246464246424242464242424256
:103A4000424646424642464642464642464246462E
:103A50004646424642424245424242424242424237
:103A60004246464246464642464646464242424212
:103A7000424242424246424242424246424242451B
:103A800042424246464642464642424246424242FE
:103A900046464246464646424242464642424242E6
:103AA00042464646424242454242424242424242E7
:103AB00046464646464242464642424246424242C6
:103AC00046424246464646424246464242424245B7
:103AD00042424242464646424642424642464246AA
:103AE000464646424242424242424642464246469A
:103AF000464642464242424542424242464642428F
:103B0000464646464246464642464242464642426D
:103B10004246464646424646424242464242424566
:103B20004242424246464246424242424642424661
:103B30004642424642464646464646464646424239
:103B4000464646464242424542424246424246423A
:103B5000424642464646424242424642424246422D
:103B60004642464246464642464642464242424512
:103B70004242424642464642464246424246424609
:103B800046424646464242424246464646464246ED
:103B900046464642424242454242424246464646E6
:103BA00046464646424642464242424642464246D1
:103BB00042464246464246464642424642424245C6
:103BC00042424246464642464642464242464242B9
:103BD00042464246464246424246464242424646A5
:103BE00042424242424242454242424642424242AE
:103BF000464646464246424646424646464242427D
:103C00004642424242424242464646424242424581
:103C1000424242464242464242424646464246426C
:103C2000464642424242464642424246424242465C
:103C3000424642424242424542424246464246464D
:103C40004646464646424242424246464242424634
:103C50004242464646464646424242464242424525
:103C60004242424242424242424242464246464228
:103C70004642464242424646464646464242424600
:103C800042464646424242454242424646464646F1
:103C900046464242424246464642464242464246E4
:103CA00042464646424642464246464242424245D5
:103CB00042424246424242424246424242424646D4
:103CC00046464646424646464242464642424246AC
:103CD00046464642424242454242424642464646A5
:103CE00042464242464242424246464242464242A0
:103CF0004246424646464646464242424242424585
:103D00004242424642464646424642424646424277
:103D1000424242464246464642464642464246465F
:103D20004642464642424245424242464246464654
:103D30004246424242464242464642464646464243
:103D40004246424246424646424246464242424538
:103D5000424242464242424242464242424646462F
:103D60004642464642424246424642424246464613
:103D70004646424242424245424242464646464604
:103D800046464246424646424242424646424242F7
:103D900042464646424246424242464242424245EC
:103DA00042424242424242424242424242424242F3
:103DB00042424242424242424242424242424242E3
:103DC00042424242424242454242424242424242D0
:103DD00042424242424242424242424242424242C3
:103DE00042424242424242424242424242424245B0
:103DF00042424242424242424242424242424242A3
:103E00004242424242424242424242424242424292
:103E100042424242424242451B0000000000000074
:103E20000000000000000000000000000000000092
:103E30000000000000000000000000000000000082
:103E40000000000000000000000000000000000072
:103E50000000000000000000000000000000000062
:103E60000000000000000000000000000000000052
:103E70000000000000000000000000000000000042
:103E8000FFFFFFFFFFFFFFFFFFFFFFFFFFFFFFFF42
:103E9000FFFFFFFFFFFFFFFFFFFFFFFFFFFFFFFF32
:103EA000FFFFFFFFFFFFFFFFFFFFFFFFFFFFFFFF22
:103EB000FFFFFFFFFFFFFFFFFFFFFFFFFFFFFFFF12
:103EC000FFFFFFFFFFFFFFFFFFFFFFFFFFFFFFFF02
:103ED000FFFFFFFFFFFFFFFFFFFFFFFFFFFFFFFFF2
:103EE000FFFFFFFFFFFFFFFFFFFFFFFFFFFFFFFFE2
:103EF000FFFFFFFFFFFFFFFFFFFFFFFFFFFFFFFFD2
:103F0000FFFFFFFFFFFFFFFFFFFFFFFFFFFFFFFFC1
:103F1000FFFFFFFFFFFFFFFFFFFFFFFFFFFFFFFFB1
:103F2000FFFFFFFFFFFFFFFFFFFFFFFFFFFFFFFFA1
:103F3000FFFFFFFFFFFFFFFFFFFFFFFFFFFFFFFF91
:103F4000FFFFFFFFFFFFFFFFFFFFFFFFFFFFFFFF81
:103F5000FFFFFFFFFFFFFFFFFFFFFFFFFFFFFFFF71
:103F6000FFFFFFFFFFFFFFFFFFFFFFFFFFFFFFFF61
:103F7000FFFFFFFFFFFFFFFFFFFFFFFFFFFFFFFF51
:103F80004368616E6E656C20340A50726963652007
:103F90005239392E39392E0000000000000000008F
:103FA0000000000000000000000000000000000011
:103FB0000000000000000000000000000000000001
:103FC00000000000000000000000000000000000F1
:103FD00000000000000000000000000000000000E1
:103FE00000000000000000000000000000000000D1
:103FF00000000000000000000000000000000000C1
:10400000002F2A2058504D202A2F2C6368616E31D2
:104010002C5231353938353A7374617469632063D1
:104020006F6E73742063686172202A636F6E73749D
:10403000207172636F64655F78706D5B5D203D20F9
:104040007B2F2A20776964746820686569676874C3
:10405000206E636F6C6F72732063686172735F7040
:1040600065725F706978656C202A22333920333994
:1040700020322031222C2F2A20636F6C6F72732024
:104080002A2F224620632023303030303030222C3B
:10409000224220632023666666666666222C2F2AEB
:1040A00020706978656C73202A2F22424242424276
:1040B00042424242424242424242424242424242E0
:1040C00042424242424242424242424242424242D0
:1040D0004242222C22424242424242424242424216
:1040E00042424242424242424242424242424242B0
:1040F000424242424242424242424242222C2242F6
:10410000424242424242424242424242424242428F
:10411000424242424242424242424242424242427F
:10412000424242424242222C2242424246464646B5
:104130004646464242464246424642464642464637
:104140004646424642424646464646464642424227
:10415000222C224242424642424242424642424689
:10416000464642464646464246424242464242420F
:1041700046424242424246424242222C224242426D
:1041800046424646464246424642464642464246E7
:1041900046424246464642464642464246464642D7
:1041A00046424242222C2242424246424646464231
:1041B00046424642464246424642464646464642B7
:1041C0004642464246424646464246424242222CE9
:1041D00022424242464246464642464246464242C3
:1041E000464642464246424642424246464246428F
:1041F0004646464246424242222C224242424642E1
:10420000424242424642464646464642464646426A
:10421000464246424642424246424242424246426A
:104220004242222C224242424646464646464642A8
:10423000464246424642464246424642464246423E
:10424000464246464646464646424242222C224284
:104250004242424242424242424246424642464232
:10426000464642424242464642424642424242421A
:10427000424242424242222C224242424642464668
:1042800046464642424242464242464642464246EE
:1042900042424642424246464646464242424242E6
:1042A000222C224242424642424646424242424634
:1042B00046424642424646424646424642464242BE
:1042C00046464246464646424242222C224242420C
:1042D000424646464242464246464242464242469E
:1042E0004642424242464242464646424642464292
:1042F00042424242222C22424242424246424646E8
:104300004242424242424642464242424246464679
:104310004646424642424646464246424242222C97
:104320002242424242464242424646424642424679
:10433000424242464246464646424646424642423D
:104340004646424642424242222C22424242464293
:104350004246464242464646424246464646464611
:10436000424642464246464242464242464646420D
:104370004242222C2242424246464242464646425F
:1043800046424646464642424246424242464242F1
:10439000464646464242464642424242222C22423B
:1043A00042424646464646424242464242464242D1
:1043B00046424642424246464646424646424246B9
:1043C000464242424242222C224242424246424617
:1043D00042424642464246424246424242464642A5
:1043E0004242464646464246464242424642424291
:1043F000222C2242424246424242464242464642E3
:10440000424246424646464646464642464646465C
:1044100046464246464646424242222C22424242BA
:104420004242424646424646464242464642464648
:104430004642464246464642424242464642464638
:1044400042424242222C2242424242464642464296
:104450004242464646424246424246424242424624
:104460004646464646464646464642424242222C3A
:104470002242424242424246464646424246424228
:1044800042424642424646424642464246464246EC
:104490004646424246424242222C22424242464242
:1044A00046464642424642424246424242464246D0
:1044B00042464646424642424642424242424642C4
:1044C0004242222C2242424246424646424646460A
:1044D00042464642464246464246424242464242A0
:1044E000424242424246464642424242222C2242F6
:1044F000424246424646424642424642464646427C
:104500004242424242464646424246424246464273
:10451000464246424242222C2242424246424646BD
:104520004646464646464242464242424246424647
:10453000424246424646464646464242464242423B
:10454000222C22424242424242424242424246429D
:104550004246464642424246424646424646464217
:1045600042424642464646424242222C2242424271
:1045700046464646464646424246464642464646E7
:1045800042424642464246464642464246424646E7
:1045900042424242222C224242424642424242424D
:1045A00046424642464242464642424246464246CB
:1045B0004646464242424646464646424242222CF1
:1045C00022424242464246464642464246464246CB
:1045D0004642424642464642424246424646464697
:1045E0004646424242424242222C224242424642F5
:1045F0004646464246424646464246424646424273
:104600004246464646464246424246464246464262
:104610004242222C224242424642464646424642BC
:104620004646424646464246464246424642424642
:10463000424246464246424242424242222C2242A4
:104640004242464242424242464242464242464636
:104650004646464242424646464242424642464616
:10466000464242424242222C22424242464646466C
:1046700046464642464642424242424646464242FA
:1046800042424646464242464242424642424242F6
:10469000222C224242424242424242424242424250
:1046A00042424242424242424242424242424242EA
:1046B00042424242424242424242227D3B224242E6
:1046C00042424242424242424242424242424242CA
:1046D00042424242424242424242424242424242BA
:1046E0004242424242227D3B2242424242424242B6
:1046F000424242424242424242424242424242429A
:104700004242424242424242424242424242424289
:10471000227D3B1B004242424242424242424242CE
:104720004242424242424242424242424242424269
:104730004242424242424242424242424242454256
:104740004242424242424242424242424242424249
:104750004242424242424242424242424242424239
:104760004242424242424242454242424242424226
:104770004242424242424242424242424242424219
:104780004242424242424242424242424242424209
:1047900042424542424242424242424242424242F6
:1047A00042424242424242424242424242424242E9
:1047B00042424242424242424242424245424242D6
:1047C00042464646464646464246424242424642A5
:1047D0004646464646464642464242464646464685
:1047E000464642424242454242424246424242429A
:1047F000424642464246424246424246424642467D
:104800004246464642464242424242464242424274
:10481000454242424246424646464246424242465D
:104820004646424242424642424642424642424650
:104830004246464642464242424245424242424641
:104840004246464642464246424242464246424628
:10485000424246424246424242464246464642461C
:104860004242424245424242424642464646424611
:1048700042424246464646464242424242464642FC
:1048800042464246424646464246424242424542ED
:1048900042424246424242424246424242424242F0
:1048A00046464242424246424642424642464242D0
:1048B00042424246424242424542424242464646C5
:1048C00046464646424642464246424642464246A0
:1048D0004246424642464246464646464646424290
:1048E00042424542424242424242424242424246A1
:1048F000424646464242424246464246424242467C
:104900004242424242424242424242424542424284
:104910004246424646424646464246424242464653
:104920004246464646424642464642464242464243
:10493000464642424242454242424242464646463C
:104940004242464246424646424246464246464227
:10495000424246424246464246464646424242421B
:104960004542424242424646424242464246464210
:1049700042424246424646424246464646424642F7
:1049800046464642424642424242454242424242F4
:1049900042464242464246464246424646464646CF
:1049A00042464246424646464242464246424646C3
:1049B00042424242454242424246424646464646BC
:1049C00042424646424242424642424646464246AB
:1049D00046464242424646424642424242424542A0
:1049E0004242424246424646464246424646424687
:1049F0004642424642464646424642464642424277
:104A00004642464242424242454242424246464273
:104A1000424646464646424646424242464646464A
:104A20004642424642464246424642424242424252
:104A3000424245424242424246464246464246463B
:104A4000464246424642424642424242464642422E
:104A50004646424246464242424242424542424223
:104A6000424646424642424646424646424242420A
:104A700046424242424646464242464642464646F2
:104A800042424242424245424242424242464246FB
:104A900042424642464642424642424246424246DE
:104AA00042424642424642464642424642424242D2
:104AB00045424242424646464646464646424646AB
:104AC00046424646464646424246464642424242A2
:104AD000464642464642424242424542424242469F
:104AE0004642464242424646424646424242464686
:104AF000424242464242424246464246424246467E
:104B00004242424245424242424246464642424672
:104B10004246464642464246464242464646464649
:104B2000424246424242464646464242424245424E
:104B3000424242464246464246424242464642423D
:104B40004246464246464642464646424246424221
:104B5000424242464242424245424242424242462A
:104B60004642424642424646424246464246424605
:104B700042464242464642464642424246464242F9
:104B800042424542424242424642424642424642F6
:104B900046464246424642464246464242464242D5
:104BA00046424242424246424242424245424242DA
:104BB00042464246464242464242464642424646B5
:104BC00046424642424242464246464646464642A1
:104BD00046424242424245424242424242424242AE
:104BE0004242424642464246424646424646464285
:104BF000464642464242424646424642424242427D
:104C00004542424242464646464646464246424261
:104C10004642424642464242464642424646424654
:104C20004246424242424242424245424242424659
:104C3000424242424246424642424646464642423C
:104C4000424246424646464642424246464646461C
:104C5000424242424542424242464246464642461D
:104C6000424242464646464242424642424246420C
:104C700046464646464642464246424242424542F1
:104C800042424246424646464246424646424642E4
:104C900046424242424642424242464642424642E0
:104CA00046464246424242424542424242464246CD
:104CB00046464246424642424646424242424246B8
:104CC00042464242464242464642464242424242B0
:104CD00042424542424242464242424242464242A9
:104CE0004246464246464646464642464246464674
:104CF000464646464242424642424242454242427D
:104D00004246464646464646424646424246464257
:104D1000464246464642464246424646424642464B
:104D20004242424242424542424242424242424260
:104D30004242424242424242424242424242424253
:104D40004242424242424242424242424242424243
:104D50004542424242424242424242424242424230
:104D60004242424242424242424242424242424223
:104D70004242424242424242424245424242424210
:104D80004242424242424242424242424242424203
:104D900042424242424242424242424242424242F3
:104DA00042424242454242424242424242424242E0
:104DB00042424242424242424242424242424242D3
:104DC0004242424242424242424242424242450002
:104DD00042424242424242424242424242424242B3
:104DE00042424242424242424242424242424242A3
:104DF0004242424242424242424542424242424290
:104E00004242424242424242424242424242424282
:104E10004242424242424242424242424242424272
:104E2000424242454242424242424242424242425F
:104E30004242424242424242424242424242424252
:104E4000424242424242424242424242424542423F
:104E50004242424242424242424242424242424232
:104E60004242424242424242424242424242424222
:104E700042424242424242454242424246464646FF
:104E800046464642464242424246424646464646DA
:104E900046464246424246464646464646424242CA
:104EA00042454242424246424242424246424642D3
:104EB00046424246424246424642464246464642B2
:104EC00046424242424246424242424542424242B7
:104ED0004642464646424642424246464642424292
:104EE0004246424246424246424246424646464286
:104EF000464242424245424242424642464646427B
:104F00004642464242424642464246424246424269
:104F10004642424246424646464246424242424556
:104F20004242424246424646464246424242464645
:104F30004646464242424242464642424642464235
:104F4000464646424642424242454242424246422A
:104F50004242424246424242424242464642424225
:104F6000424642464242464246424242424246420D
:104F700042424245424242424646464646464642F2
:104F800046424642464246424642464246424642E1
:104F900046424646464646464642424242454242CE
:104FA00042424242424242424242464246464642D1
:104FB00042424246464246424242464242424242C1
:104FC00042424242424242454242424246424646B2
:104FD0004246464642464242424646424646464689
:104FE0004246424646424642424642464642424285
:104FF0004245424242424246464646424246424676
:105000004246464242464642464642424246424264
:105010004646424646464642424242454242424255
:105020004246464242424642464642424242464248
:105030004646424246464646424642464646424228
:105040004642424242454242424242424642424631
:105050004246464246424646464646424642464208
:105060004646464242464246424646424242424501
:1050700042424242464246464646464242464642F0
:1050800042424246424246464642464646424242E4
:1050900046464246424242424245424242424246DD
:1050A00042464646424642464642464642424642BC
:1050B00046464642464246464242424642464242B0
:1050C00042424245424242424646424246464646A5
:1050D000464246464242424646464646424246428C
:1050E0004642464246424242424242424245424291
:1050F000424242464642464642464646424642466C
:105100004242464242424246464242464642424667
:10511000464242424242424542424242464642465C
:10512000424246464246464242424246424242424B
:10513000464646424246464246464642424242422F
:10514000424542424242424246424642424642462C
:10515000464242464242424642424642424642421B
:10516000464246464242464242424245424242420C
:1051700046464646464646464246464642464646D7
:1051800046464242464646424242424646424646DB
:1051900042424242424542424242464642464242E0
:1051A00042464642464642424246464242424642C3
:1051B00042424246464246424246464242424245B8
:1051C00042424242424646464242464246464642A3
:1051D000464246464242464646464642424642428B
:1051E0004246464646424242424542424242464288
:1051F000464642464242424646424242464642466F
:105200004646424646464242464242424242464262
:10521000424242454242424242424646424246425F
:10522000424646424246464246424642464242463E
:105230004642464642424246464242424245424237
:105240004242424642424642424642464642464226
:105250004642464246464242464242464242424216
:10526000424642424242424542424242464246460B
:1052700042424642424646424246464642464242F2
:1052800042424642464646464646424642424242DE
:1052900042454242424242424242424242424642E7
:1052A00046424642464642464646424646424642B6
:1052B00042424646424642424242424542424242BF
:1052C0004646464646464642464242464242464296
:1052D0004642424646424246464246424642424292
:1052E0004242424242454242424246424242424297
:1052F000464246424246464646424242424642466E
:10530000464646424242464646464642424242455A
:105310004242424246424646464246424242464651
:105320004646424242464242424642464646464639
:10533000464246424642424242454242424246423A
:10534000464646424642464642464246424242421D
:105350004642424242464642424642464642464211
:105360004242424542424242464246464642464206
:1053700046424246464242424242464246424246F5
:1053800042424646424642424242424242454242EE
:1053900042424642424242424642424246464246D9
:1053A00046464646464246424646464646464642A9
:1053B00042424642424242454242424246464646B6
:1053C0004646464246464242464642464246464691
:1053D0004246424642464642464246424242424295
:1053E000424542424242424242424242424242429A
:1053F000424242424242424242424242424242428D
:105400004242424242424242424242454242424279
:10541000424242424242424242424242424242426C
:10542000424242424242424242424242424242425C
:105430004242424242454242424242424242424249
:10544000424242424242424242424242424242423C
:105450004242424242424242424242424242424529
:10546000424242424242424242424242424242421C
:10547000424242424242424242424242424242420C
:10548000424242424242424242450042424242423B
:1054900042424242424242424242424242424242EC
:1054A00042424242424242424242424242424242DC
:1054B00042424242454242424242424242424242C9
:1054C00042424242424242424242424242424242BC
:1054D00042424242424242424242424242424542A9
:1054E000424242424242424242424242424242429C
:1054F000424242424242424242424242424242428C
:105500004242424242424242454242424242424278
:10551000424242424242424242424242424242426B
:10552000424242424242424242424242424242425B
:105530004242454242424246464646464646424628
:105540004242424246424646464646464642464217
:10555000424646464646464642424242454242420C
:105560004246424242424246424642464242464207
:1055700042464246424642464646424642424242EF
:1055800042464242424245424242424642464646E4
:1055900042464242424646464242424246424246D3
:1055A00042424642424642464646424642424242C3
:1055B00045424242424642464646424642464242B0
:1055C00042464246424642424642424642424246A3
:1055D0004246464642464242424245424242424694
:1055E0004246464642464242424646464646424277
:1055F000424242464642424642464246464642466B
:10560000424242424542424242464242424242466F
:10561000424242424242464642424242464246425A
:10562000424642464242424242464242424245424B
:105630004242424646464646464642464246424622
:105640004246424642464246424642464246464616
:105650004646464642424242454242424242424217
:105660004242424242464246464642424242464602
:105670004246424242464242424242424242424202
:1056800042424542424242464246464246464642DF
:1056900046424242464642464646464246424646C2
:1056A00042464242464246464242424245424242C7
:1056B00042424646464642424642464246464242AA
:1056C0004646424646424242464242464642464696
:1056D0004646424242424542424242424646424297
:1056E000424642464642424242464246464242467E
:1056F000464646424642464646424246424242426A
:105700004542424242424246424246424646424662
:105710004246464646464246424642464646424241
:105720004642464246464242424245424242424642
:105730004246464646464242464642424242464229
:105740004246464642464646424242464642464215
:105750004242424245424242424246424646464216
:1057600046424646424646424246424646464246F1
:1057700042464642424246424642424242424542F6
:1057800042424246464242464646464642464642D5
:1057900042424646464646424246424642464246C5
:1057A00042424242424242424542424242424646CE
:1057B00042464642464646424642464242464242A9
:1057C00042424646424246464242464642424242A1
:1057D0004242454242424246464246424246464292
:1057E0004646424242424642424242464646424281
:1057F0004646424646464242424242424542424272
:105800004242424642464242464246464242464260
:105810004242464242464242464242464246464250
:10582000424642424242454242424246464646463D
:105830004646464246464642464646464642424618
:105840004646424242424646424646424242424220
:10585000454242424246464246424242464642460D
:105860004642424246464242424642424242464600
:1058700042464242464642424242454242424242F9
:1058800046464642424642464646424642464642D0
:1058900042464646464642424642424246464646C0
:1058A00042424242454242424246424646424642C5
:1058B00042424646424242464642464646424646A4
:1058C00046424246424242424246424242424542A9
:1058D0004242424242464642424642424646424294
:1058E0004646424642464246424246464246464274
:1058F0004242464642424242454242424242464279
:105900004246424246424646424642464246424657
:105910004642424642424642424242424642424257
:105920004242454242424246424646424246424244
:105930004646424246464642464242424246424627
:10594000464646464642464242424242454242421C
:105950004242424242424242424642464246424617
:1059600046424646464246464246424242464642F3
:1059700046424242424245424242424646464646EC
:1059800046464246424246424246424642424646D7
:1059900042424646424642464242424242424242D7
:1059A00045424242424642424242424642464242C8
:1059B00046464646424242424642464646464242A3
:1059C000424646464646424242424542424242469C
:1059D0004246464642464242424646464642424287
:1059E000464242424642464646464646424642466F
:1059F0004242424245424242424642464646424670
:105A00004246464246424642424242464242424262
:105A1000464642424642464642464242424245424B
:105A20004242424642464646424642464242464636
:105A30004242424242464246424246424246464232
:105A4000464242424242424245424242424642422B
:105A50004242424642424246464246464646464602
:105A600042464246464646464646424242464242F2
:105A700042424542424242464646464646464246E3
:105A800046424246464246424646464246424642D2
:105A900046464246424642424242424245424242D3
:105AA00042424242424242424242424242424242D6
:105AB00042424242424242424242424242424242C6
:105AC00042424242424245424242424242424242B3
:105AD00042424242424242424242424242424242A6
:105AE0004242424242424242424242424242424296
:105AF0004542424242424242424242424242424283
:105B00004242424242424242424242424242424275
:105B10004242424242424242424245424242424262
:105B20004242424242424242424242424242424255
:105B30004242424242424242424242424242424245
:105B40004242424245004242424242424242424274
:105B50004242424242424242424242424242424225
:105B60004242424242424242424242424242424512
:105B70004242424242424242424242424242424205
:105B800042424242424242424242424242424242F5
:105B900042424242424242424245424242424242E2
:105BA00042424242424242424242424242424242D5
:105BB00042424242424242424242424242424242C5
:105BC00042424245424242424242424242424242B2
:105BD00042424242424242424242424242424242A5
:105BE0004242424242424242424242424245424292
:105BF0004242464646464646464246424242424661
:105C00004246464646464646424642424646464644
:105C10004646464242424245424242424642424251
:105C2000424246424642464242464242464246423C
:105C3000464246464642464242424242464242422C
:105C4000424542424242464246464642464242421D
:105C5000464646424242424642424642424642420C
:105C600046424646464246424242424542424242FD
:105C700046424646464246424642424246424642E4
:105C800046424246424246424242464246464642D8
:105C900046424242424542424242464246464642CD
:105CA00046424242464646464642424242424646B4
:105CB00042424642464246464642464242424245A9
:105CC00042424242464242424242464242424242AC
:105CD000424646424242424642464242464246428C
:105CE0004242424246424242424542424242464685
:105CF000464646464642464246424642464246425C
:105D00004642464246424642464646464646464247
:105D10004242424542424242424242424242424260
:105D20004642464646424242424646424642424237
:105D3000464242424242424242424242424542423C
:105D40004242464246464246464642464242424613
:105D500046424646464642464246464246424246FB
:105D600042464642424242454242424242464646FC
:105D700046424246424642464642424646424646DF
:105D800042424246424246464246464646424242D7
:105D900042454242424242464642424246424646CC
:105DA00042424242464246464242464646464246B3
:105DB00042464646424246424242424542424242B0
:105DC000424246424246424646424642464646468F
:105DD000464246424642464646424246424642467F
:105DE0004642424242454242424246424646464678
:105DF0004642424646424242424642424646464267
:105E00004646464242424646424642424242424557
:105E10004242424242464246464642464246464246
:105E2000464642424642464646424642464642422E
:105E3000424642464242424242454242424246462F
:105E4000424246464646464246464242424646460A
:105E5000464642424642464246424642424242420A
:105E600042424245424242424246464246464246FB
:105E700046464246424642424642424242464642E6
:105E800042464642424646424242424242454242DF
:105E900042424646424642424646424646424242C6
:105EA00042464242424246464642424646424646B2
:105EB00046424242424242454242424242424642B7
:105EC000464242464246464242464242424642429A
:105ED000464242464242464246464242464242428A
:105EE000424542424242464646464646464642466B
:105EF000464642464646464642424646464242425A
:105F0000424646424646424242424245424242425E
:105F10004646424642424246464246464242424641
:105F20004642424246424242424646424642424639
:105F3000464242424245424242424246464642422E
:105F40004642464646424642464642424646464605
:105F50004642424642424246464646424242424506
:105F600042424242464246464246424242464642F9
:105F700042424646424646464246464642424642DD
:105F800042424242464242424245424242424242EA
:105F900046464242464242464642424646424642C1
:105FA00046424642424646424646424242464642B1
:105FB00042424245424242424246424246424246B2
:105FC0004246464246424642464246464242464291
:105FD0004246424242424246424242424245424296
:105FE0004242464246464242464242464642424675
:105FF0004646424642424242464246464646464659
:106000004246424242424245424242424242424269
:106010004242424246424642464246464246464640
:106020004246464246424242464642464242424238
:10603000424542424242464646464646464246421D
:106040004246424246424642424646424246464214
:106050004642464242424242424242454242424215
:1060600046424242424246424642424646464642F4
:1060700042424246424646464642424246464646DC
:1060800046424242424542424242464246464642D9
:1060900046424242464646464242424642424246C4
:1060A00042464646464646424642464242424245AD
:1060B00042424242464246464642464246464246A0
:1060C000424642424242464242424246464242469C
:1060D000424646424642424242454242424246428D
:1060E0004646464246424642424646424242424274
:1060F0004642464242464242464642464242424268
:106100004242424542424242464242424242464264
:106110004242464642464646464646424642464633
:106120004646464646424242464242424245424234
:106130004242464646464646464246464242464613
:10614000424642464646424642464246464246420B
:106150004642424242424245424242424242424218
:10616000424242424242424242424242424242420F
:1061700042424242424242424242424242424242FF
:1061800042454242424242424242424242424242EC
:1061900042424242424242424242424242424242DF
:1061A00042424242424242424242424542424242CC
:1061B00042424242424242424242424242424242BF
:1061C00042424242424242424242424242424242AF
:1061D000424242424245424242424242424242429C
:1061E000424242424242424242424242424242428F
:1061F000424242424242424242424242424242457C
:1062000000424242424242424242424242424242B0
:10621000424242424242424242424242424242425E
:10622000424242424242424242424542424242424B
:10623000424242424242424242424242424242423E
:10624000424242424242424242424242424242422E
:10625000424242424542424242424242424242421B
:10626000424242424242424242424242424242420E
:1062700042424242424242424242424242424542FB
:1062800042424242424242424242424242424242EE
:1062900042424242424242424242424242424242DE
:1062A00042424242424242424542424242464646BF
:1062B0004646464642464242424246424646464696
:1062C0004646464246424246464646464646424282
:1062D000424245424242424642424242424642468F
:1062E000424642424642424642464246424646466E
:1062F0004246424242424246424242424542424273
:10630000424642464646424642424246464642424D
:106310004242464242464242464242464246464641
:106320004246424242424542424242464246464636
:106330004246424642424246424642464242464225
:106340004246424242464246464642464242424215
:106350004542424242464246464642464242424602
:1063600046464646424242424246464242464246ED
:1063700042464646424642424242454242424246E6
:1063800042424242424642424242424246464242E1
:1063900042424642464242464246424242424246C9
:1063A00042424242454242424246464646464646AE
:1063B000424642464246424642464246424642469D
:1063C000424642464646464646464242424245428A
:1063D000424242424242424242424246424646468D
:1063E000424242424646424642424246424242427D
:1063F0004242424242424242454242424246424672
:106400004642464646424642424246464246464644
:10641000464246424646424642424642464642423C
:106420004242454242424242464646464242464235
:10643000464246464242464642464642424246421C
:106440004246464246464646424242424542424211
:106450004242464642424246424646424242424604
:1064600042464642424646464642464246464642E4
:1064700042464242424245424242424242464242F1
:1064800046424646424642464646464642464246C0
:1064900042464646424246424642464642424242C0
:1064A00045424242424642464646464642424646A9
:1064B00042424242464242464646424646464242A0
:1064C000424646424642424242424542424242429D
:1064D0004642464646424642464642464642424674
:1064E000424646464246424646424242464246426C
:1064F0004242424245424242424646424246464665
:106500004646424646424242464646464642424643
:10651000424642464246424242424242424245424C
:10652000424242424646424646424646464246422B
:106530004642424642424242464642424646424223
:106540004646424242424242454242424246464218
:106550004642424646424646424242424642424203
:1065600042464646424246464246464642424242EB
:1065700042424542424242424246424642424642EC
:1065800046464242464242424642424642424642D3
:1065900042464246464242464242424245424242C8
:1065A0004246464646464646464246464642464697
:1065B0004646464242464646424242424646424697
:1065C0004642424242424542424242464642464298
:1065D000424246464246464242424646424242467F
:1065E0004242424246464246424246464242424277
:1065F000454242424242464646424246424646465C
:106600004246424646424246464646464242464246
:106610004242464646464242424245424242424643
:10662000424646424642424246464242424646422E
:10663000464646424646464242464242424242461A
:10664000424242424542424242424246464242461B
:1066500042424646424246464246424642464242FE
:1066600046464246464242424646424242424542EF
:1066700042424242464242464242464246464246E2
:1066800042464246424646424246424246424242D2
:1066900042424642424242424542424242464246CB
:1066A00046424246424246464242464646424642AA
:1066B000424242464246464646464642464242429A
:1066C00042424542424242424242424242424246A3
:1066D0004246424642464642464646424646424672
:1066E000424242464642464242424242454242427B
:1066F0004246464646464646424642424642424652
:10670000424642424646424246464246424642424D
:106710004242424242424542424242464242424252
:10672000424642464242464646464242424246422D
:106730004646464642424246464646464242424215
:10674000454242424246424646464246424242460E
:1067500046464642424246424242464246464646F5
:1067600046464246424642424242454242424246F2
:1067700042464646424642464642464246424242D9
:1067800042464242424246464242464246464246CD
:1067900042424242454242424246424646464246C2
:1067A00042464242464642424242424642464242B5
:1067B00046424246464246424242424242424542A6
:1067C0004242424642424242424642424246464299
:1067D0004646464646464246424646464646464661
:1067E0004242424642424242454242424246464676
:1067F000464646464246464242464642464246464D
:10680000464246424642464642464246424242424C
:106810004242454242424242424242424242424255
:106820004242424242424242424242424242424248
:106830004242424242424242424242424542424235
:106840004242424242424242424242424242424228
:106850004242424242424242424242424242424218
:106860004242424242424542424242424242424205
:1068700042424242424242424242424242424242F8
:1068800042424242424242424242424242424242E8
:1068900045424242424242424242424242424242D5
:1068A00042424242424242424242424242424242C8
:1068B00042424242424242424242450000000000FF
:1068C0000000003E4551453E003E6B6F6B3E001C94
:1068D0003E7C3E1C00183C7E3C180030367F363033
:1068E00000185C7E5C180000000000000000000042
:1068F0000000000000000000000000000000003068
:10690000484A360E000629792906000000000000DA
:1069100000607E0A353F002A1C361C2A00007F3E9C
:106920001C0800081C3E7F000014367F361400004F
:106930005F005F000006097F017F00224D5559224C
:106940000060606060000014B6FFB6140004067FAB
:1069500006040010307F30100008083E1C080008B4
:106960001C3E080800784040404000083E083E08B1
:1069700000303C3F3C3000030F3F0F03000000009D
:1069800000000000065F0600000703000703002464
:106990007E247E2400242B6A1200006313086463A3
:1069A00000364956205000000703000000003E4119
:1069B00000000000413E000000083E1C3E080008A8
:1069C000083E08080000E060000000080808080809
:1069D000000060600000002010080402003E5149E1
:1069E000453E0000427F4000006251494946002276
:1069F00049494936001814127F10002F494949317E
:106A0000003C4A49493000017109050300364949F3
:106A1000493600064949291E00006C6C0000000040
:106A2000EC6C0000000814224100002424242424DB
:106A3000000041221408000201590906003E415D90
:106A4000551E007E1111117E007F49494936003ED6
:106A500041414122007F4141413E007F4949494136
:106A6000007F09090901003E4149497A007F080871
:106A7000087F0000417F410000304040403F007FE0
:106A800008142241007F40404040007F0204027F02
:106A9000007F0204087F003E4141413E007F09091A
:106AA0000906003E4151215E007F09091966002652
:106AB000494949320001017F0101003F4040403F08
:106AC000001F2040201F003F403C403F006314084F
:106AD000146300070870080700714945430000006F
:106AE0007F414100000204081020000041417F0066
:106AF000000402010204808080808080000003077F
:106B00000000002054545478007F44444438003836
:106B10004444442800384444447F003854545408C2
:106B200000087E0909000018A4A4A47C007F0404C6
:106B300078000000007D4000004080847D00007FE0
:106B4000102844000000007F4000007C04180478F6
:106B5000007C0404780000384444443800FC444479
:106B600044380038444444FC004478440408000895
:106B70005454542000043E442400003C40207C0037
:106B8000001C2040201C003C6030603C006C101059
:106B90006C00009CA0603C00006454544C00000851
:106BA0003E414100000000770000000041413E08E6
:106BB000000201020100003C2623263C001EA1E148
:106BC0002112003D40207D0000385454550900201A
:106BD0005555557800205554557800205555547812
:106BE000002057555778001CA2E222140038555552
:106BF00055080038555455080038555554080000BC
:106C0000017C41000000017D41000000017C40004A
:106C100000702924297000782F252F78007C545487
:106C200055450034547C5458007E097F494900384A
:106C3000454539000038454439000039454438009D
:106C4000003C41217D00003D41207C00009CA16072
:106C50003D00003D42423D00003C41403D0080700F
:106C60006858380400483E494962007E615D433FF0
:106C70000022140814220040887E09020020545586
:106C800055780000007D4100003844453900003C43
:106C900040217D00007A090A7100007A11227900F2
:106CA00000085555555E004E51514E000030484D7C
:106CB00040203E415D4B553E04040404041C001773
:106CC000084C6A50001708342A780000307D3000E4
:106CD000000814000814001408001408441144119A
:106CE0004411AA55AA55AA55BBEEBBEEBBEE000057
:106CF00000FF0000080808FF000000702825297028
:106D00000070292529700070292528703E415D55A5
:106D1000413E0AFB00FF000000FF00FF00000AFAEE
:106D200002FE00000A0B080F000000182466240071
:106D300000292A7C2A29080808F800000000000F12
:106D400008080808080F0808080808F808080000DC
:106D500000FF0808080808080808080808FF0808CD
:106D600000205655567900702A252A71000F080B0D
:106D70000A0A00FE02FA0A0A0A0B080B0A0A0AFAB1
:106D800002FA0A0A00FF00FB0A0A0A0A0A0A0A0AA9
:106D90000AFB00FB0A0A005D2222225D00225559EF
:106DA000300000087F49413E007C55555544007C29
:106DB00055545544007C55555444000000070000CC
:106DC0000000447D45000000457D45000000457CF5
:106DD00045000808080F0000000000F80808FFFF41
:106DE000FFFFFFFFF0F0F0F0F0F000000077000090
:106DF0000000457D44000F0F0F0F0F0F003C424372
:106E00003D0000FE4A4A3400003C43433D00003D43
:106E100043423C000032494A3100003A45463900BD
:106E200000FC20201C0000FEAA28100000FFA52462
:106E30001800003C40413D00003C41413D00003D08
:106E400041403C00009CA0613D0000040871090421
:106E50000000020202000000070300000000080812
:106E600008000000242E24000024242424240517D4
:106E70000A342A780006097F017F00224D555922E5
:106E80000008082A08080000081818000006090968
:106E900006000000080008000000080000000002D2
:106EA0000F00000000090F05000000090D0A000096
:106EB000003C3C3C3C0000000000000042424242DA
:106EC00042424242424242424242424242424242A2
:106ED0004242424242424242424242424242424292
:106EE000424542424242424242424242424242427F
:106EF0004242424242424242424242424242424272
:106F00004242424242424245424246464646464646
:106F1000464242424642424246424242424646423D
:106F2000464242424646464646464642424542421E
:106F30004642424242424642424642424246424221
:106F4000424642464242424646424642424242420D
:106F500046424245424246424646464246424642F2
:106F600042464242424642424246424242464242F1
:106F700046424646464246424245424246424646CE
:106F800046424642424642424646424242424242CD
:106F900042464642424246424646464246424245B2
:106FA00042424642464646424642424642424646A1
:106FB0004242464246464246464646424642464689
:106FC000464246424245424246424242424246428E
:106FD0004242464646424646424246464646464665
:106FE000424246424242424246424245424246466E
:106FF0004646464646424642464246424642464249
:107000004642464246424642464646464646464234
:107010004245424242424242424242424642424645
:107020004242424242464246424646424242424230
:107030004242424242424245424246464642464619
:107040004646464242424642424646464242464200
:107050004242424646424242464242424245424201
:1070600042424646424642464646424646464246D8
:1070700042464242464242424642464242464242DC
:1070800046424245424246424246464646424642C1
:1070900046464642464242424642464242424242B8
:1070A000464646464246464242454242424246469D
:1070B0004242424246464642464646464646464684
:1070C0004246464642464246424642464242424581
:1070D0004242464242464642464646424646424270
:1070E0004642424642464642424242464642424664
:1070F0004242464242454242464246464246424655
:107100004646464642424642424242424646424243
:107110004642464242464642464242454242424238
:10712000464642464646424246424246424246421F
:10713000424242464642424246424242424646421B
:107140004245424246424642464242424646464600
:1071500042424246424646424246464246424642F3
:1071600046464246424242454242424646424642E4
:1071700046464646464246424246424642424646C7
:1071800042464646464242424246464242454242C4
:1071900042424246464242424246464646464242B3
:1071A00042424246464246424246464242424642A7
:1071B000464242454242424642424646464646468C
:1071C000424646424642424642424242464242428B
:1071D0004646424642464642424542424242464274
:1071E000464642464642464246464646424646464F
:1071F000464646424642464642464246424242454C
:10720000424246424246424646424242424642424A
:107210004646424642464246424646464646424226
:10722000424646424245424242424242424642462B
:107230004242424642424642424646424246464216
:107240004646464242424642464242454242464203
:1072500046464242464646424242424642424242F6
:1072600042424646424242424642424642464642E6
:1072700042454242424646424642424242464246D7
:1072800042424246464646464646424642424242BE
:1072900046424246424242454242464242424246BB
:1072A000464642464642464242424246424246469E
:1072B000464646464646464642424242424542428B
:1072C000424242424242424246464246464642428A
:1072D000424242424646464646424242464642466E
:1072E0004642424542424646464646464642464653
:1072F0004246464246424246424242424646464252
:107300004642464246464642424542424642424242
:10731000424246424642424246464646424642462D
:107320004246424246424242464242464642424526
:10733000424246424646464246424646424642420D
:1073400046424246424646464242464646464642F5
:1073500042424242424542424642464646424642F6
:1073600042424646424246424246464246424246E1
:1073700046424246464246424642424542424642D2
:1073800046464642464246464642424642424242BD
:1073900042424242464642424242464642424642B9
:1073A00042454242464242424242464246424246AA
:1073B0004242424646464242464646464642464289
:1073C000464242464242424542424646464646467A
:1073D000464246424242464242464246464642466D
:1073E0004642464242424646424646424245424262
:1073F000424242424242424242424242424242426D
:10740000424242424242424242424242424242425C
:107410004242424542424242424242424242424249
:10742000424242424242424242424242424242423C
:10743000424242424242424242450042424242426B
:10744000424242424242424242424242424242421C
:10745000424242424242424242424242424242420C
:1074600045424242424242424242424242424242F9
:1074700042424242424242424242424242424242EC
:1074800042424242424245424246464646464646BD
:1074900042464646464246464642464242464646A0
:1074A0004642424646464646464642424542424695
:1074B0004242424242464242424246464646464294
:1074C0004646464646424242424642424242424680
:1074D0004242454242464246464642464242464271
:1074E000464246464242424642464642464242465C
:1074F0004246464642464242454242464246464649
:107500004246424242464642424646424646464637
:10751000424246464246424646464246424245422C
:107520004246424646464246424242464646464217
:107530004642464646424242424642464246464607
:10754000424642424542424642424242424642420C
:1075500046424642464642424242424642424646EF
:1075600042464242424242464242454242464646E4
:1075700046464646424642464246424642464246C3
:1075800042464246424642464646464646464242B3
:1075900045424242424242424242424646424246BC
:1075A000424642424246464642464646424242429F
:1075B0004242424242424542424646424646424694
:1075C0004242464242464646464646424642464277
:1075D0004242424642424242424642424542424280
:1075E000424642464242424242464242424642426B
:1075F0004246464246464642464246464246464243
:107600004242454242424642424642464246464243
:107610004246424642424646424646464642424626
:10762000424242424646424245424246464246461F
:10763000424242424242424242464642464242421E
:107640004242464642424246464642424242454203
:1076500042464242464642464246464642424646E6
:1076600042464242424646424642424646424242E2
:1076700046464242454242464246464642424642CB
:1076800046464246424242424646424242424642C2
:1076900042424642424242424242454242424642BF
:1076A000464242464246464242424246464642429E
:1076B0004646424642424642464242424242424296
:1076C0004542424242464642424242464246424683
:1076D000464642424242464642424642464246426E
:1076E000424642464242454242424642424646465F
:1076F000464642464646424246424242424642464A
:107700004246464646464642464642424542424632
:107710004646424246424642424246424242464231
:107720004246424646424246424646464242464615
:107730004242454242424246464242464242424616
:1077400042464646464642424642464646424646ED
:1077500042424242424642424542424246464246F6
:1077600046424646464246424642424242424642DD
:1077700042464642424242424246464642424542D2
:1077800042464646424646464642464646424642AD
:1077900046464642424642424646424242424242B1
:1077A00042424242454242464646464642424242A2
:1077B0004646424646424246424246464242464289
:1077C0004242464646424642424245424246424282
:1077D0004246424646464642464246424242464269
:1077E0004246424646424246464642424646424259
:1077F0004542424642464642424246424646464646
:107800004642424246424246424646464642464238
:10781000424642424242454242464642464246462D
:107820004646424646464642464242424646424610
:10783000424646464646424246424242454242420D
:107840004242424242424246424642424646424208
:1078500046464242424642464242424642464642EC
:1078600042424542424646464646464642424646D1
:1078700046464642464646424646464646464246B4
:1078800042464246424242424542424642424242C9
:1078900042464242424646424242424642464246B0
:1078A0004246464642424246464642464242454299
:1078B0004246424646464246424646424242424688
:1078C0004646424246464246464646464646464268
:1078D0004646424245424246424646464246424665
:1078E0004246464646464246464246464646464248
:1078F0004642424242424646424245424246424651
:107900004646424642424646464242424642464237
:107910004642464642424642464642424646424227
:107920004542424642424242424642464242424624
:10793000424642464246424242464242424246460F
:1079400046464646424245424246464646464646E8
:1079500042464642424646464242464642464246E3
:1079600042464646464646424242424245424242DC
:1079700042424242424242424242424242424242E7
:1079800042424242424242424242424242424242D7
:1079900042424542424242424242424242424242C4
:1079A00042424242424242424242424242424242B7
:1079B00042424242424242424500424242424242E6
:1079C0004242424242424242424242424242424297
:1079D0004242424242424242424242424242424584
